:020000040800F2
:10000000B0060020D9000008E51800084B160008CB
:1000100000000000000000000000000000000000E0
:10002000000000000000000000000000C51A0008E9
:100030000000000000000000E7180008C71A0008D0
:10004000EB00000800000000EB000008EB000008D7
:10005000EB000008EB000008EB000008EB000008D4
:10006000000000006901000879010008EB000008A9
:10007000EB000008EB000008EB00000800000000A7
:10008000EB0000080000000000000000EB0000088A
:1000900000000000EB000008EB000008EB00000887
:1000A000EB000008EB000008EB000008EB00000884
:1000B000EB0000080000000000000000000000004D
:1000C0000448854600F03EF80048004789240008AF
:1000D000C046C046B0060020044880470448004798
:1000E000FEE7FEE7FEE7FEE7FEE7FEE73B1B000854
:1000F000C100000830B50B46014600202022012433
:1001000009E00D46D5409D4205D31D469540491B4B
:100110002546954040191546521E002DF1DC30BD94
:10012000D2B201E00270401C491EFBD2704700228F
:10013000F6E710B513460A4604461946FFF7F0FFE6
:10014000204610BD064C0125064E05E0E36807CCAD
:100150002B430C3C98471034B442F7D3FFF7B4FF5D
:10016000D0290008F029000810B5024800F08AFAEA
:1001700010BD00009C01002010B5024800F082FA7A
:1001800010BD00004001002010B50446006C094974
:100190008008800040186064207814210838FFF738
:1001A000A9FF04498031A164C106C90E012088401D
:1001B000E06410BD000802400179084B8906890EF1
:1001C0008A00D2180265054A4432491E42658A07F0
:1001D000920F01219140816570470000FC080240A8
:1001E00072B6FEE7F8B5002706460446403600978B
:1001F000307D0D4601280FD001203075206801F0B8
:1002000029FA00280AD0A06D20210843A065012703
:10021000002030753846F8BD0220F8BD6868022815
:100220007ED001222169D207914202D0121D914253
:1002300006D120682968826A4903490B0A436EE0A7
:10024000C206D20E0F20216E9040814328684303DE
:1002500002D0C3074BD102E04000C00E48E0830744
:1002600001D5012044E0430701D5022040E0030707
:1002700001D503203CE0C30601D5042038E0830605
:1002800001D5052034E0430601D5062030E0030601
:1002900001D507202CE0C30501D5082028E08305FF
:1002A00001D5092024E0430501D50A2020E00305FB
:1002B00001D50B201CE0C30401D50C2018E08304F9
:1002C00001D50D2014E0430401D50E2010E00304F5
:1002D00001D50F200CE0C30301D5102008E08303F3
:1002E00001D5112004E0400301D5122000E00020D8
:1002F0009040014321666968E2698808401C904289
:1003000010D820682B68826A9C46C906C90E0F2344
:100310008B409A4363469B001B0F8B401A4300E0BF
:100320003BE082622168AB6828684A690002824328
:1003300018404001400902434A612868002800DB58
:1003400066E72B4A116807239B051940294B984201
:1003500014D10B0212D4C0020143104601F07EF901
:10036000264825490068FFF7C5FE0C21401C48437C
:1003700000E0401E00900028FBD149E7204B984246
:1003800003D1CB0101D4800205E01E4B9842D7D1A6
:100390004802D5D45802014325E001212069C9074C
:1003A000884202D0091D884206D120682968826AE5
:1003B0004903490B8A43826228680028C0DA0C4A44
:1003C000116807239B0519400A4B984201D1C002CE
:1003D00008E00B4B984201D1800203E0094B9842A0
:1003E000AED140028143104601F038F910E7000019
:1003F00008270140001000B0400D03000C00002051
:10040000004000B8002000B4FEB500270446019764
:100410003E4602970097002805D02546A06D20355E
:10042000002802D007E00120FEBD204600F0FCF8C5
:10043000E6655420065520688168C900C90F12D1AD
:100440008168724A1140012212071143816071488C
:100450006F490068FFF74EFE4000801C00E0401E20
:1004600000900028FBD120688168C900C90F08D11D
:10047000A16D10221143A165E16D01221143E165D7
:10048000174601F0E7F8A16DC90601D4002804D091
:10049000A06D10210843A065B4E0A06DFF210131DB
:1004A000884302210843A065206801F0CFF80028A6
:1004B0006DD1217EA06889030843617ECA03A17EB5
:1004C0004B031A431043226B002A01D0012212036E
:1004D0001043E26810432269002A02DA52005208EF
:1004E00001E00122520510432A7B52001043019A79
:1004F00010432A78012A09D1002922D0A16D202297
:100500001143A165E16D01221143E165616A002992
:1005100006D0FF23C1331940A26A014310460843A5
:100520002168CA683C4B1A400243CA606168029A5B
:10053000890F8907E06C0A4310432A7F012A04D0FF
:100540000CE0012109040843E0E7636C226C491CBC
:100550001A43A36C0B4311461943084321680A69E7
:100560002E4B1A4002430A610321606889078842C2
:100570000DD0590788420AD04900884207D0284A3E
:1005800091680F239B049943184001439160002117
:10059000626B206801F069F82249A26B206801F0C3
:1005A00064F80F202169C04300291CD001225205A4
:1005B00091420AD121688A6A227F9200121FD206D4
:1005C000D20E9040226E1043886220684069616BB1
:1005D0004007400F88420BD1E665A06D800880007F
:1005E000401CA0650FE021688A6A02438A62ECE73A
:1005F000A06D0221884310210843A065E06D012110
:100600000843E06501273846FEBD0000E8FFFF7F94
:10061000400D03000C0000200102DEFF02FCFF1F62
:100620000027014004FFFF0710B586B004461421DF
:100630006846FFF77CFD1149206888421CD11048AC
:100640000268012109050A4302600068084005901C
:100650000B484038416B012211434163406B6946AE
:10066000104005900220009003200190002002908D
:100670000520000700F0C6F806B010BD00240140B8
:1006800040100240F0B42C490C6802681368056CF5
:100690001C273D400426AE40264211D05E070FD5F0
:1006A00013689B0603D4146804239C4314604B68AE
:1006B000046C04223C40A24013434B60016B1CE0DD
:1006C0000227AF40064627402036002F19D09F074B
:1006D00017D513689B0605D413680A24A343136037
:1006E000012272714B68046C1C2214400222A24049
:1006F00013434B6000213171C16A00291AD0F0BC4C
:1007000008470827AF40274214D01B0712D51368AB
:100710000E24A34313604B68046C1C221440012276
:100720001546A5402B434B60C263727100213171A5
:10073000416BE2E7F0BC70470000024070B5040076
:100740003FD02548256814212818FFF7D3FC8000E6
:100750002064022026462036707128681F49084010
:100760002860E168A0686269084321691143084371
:10077000A1690843E1690843216A084321680A68BE
:10078000104308602046FFF7FFFC0121A0688903A1
:100790000025884200D165602079616C8006800E5A
:1007A0000860A06CE16C41606068401E03280AD8B4
:1007B0002046FFF701FD206D0560606DA16D416071
:1007C00004E0012070BD25656565A565E563012030
:1007D00070713571002070BDF8FFFDBF0F80FFFF05
:1007E00070B5044600F0C8F80546601C02D0044805
:1007F0000078241800F0C0F8401BA042FAD370BD66
:1008000000000020F0B5002303249AE02A460125C9
:100810009D402A407ED00E79B607B60F012E01D03A
:10082000022E16D186682746B4465E00B646B7400B
:100830006646BE43B446CF687646B7406646374301
:1008400087604668AE430D79ED06ED0F9D40354358
:1008500045600D79ED43AD0708D0C5685F002646B9
:10086000BE40B5438E68BE402E43C6600D79AD07CD
:10087000AD0F022D0ED1DD08AD002D18AC462D6A4E
:100880005E07F60E0F27B740BD430F69B7402F43F1
:1008900065462F6205685F002646BE40B5430E7967
:1008A000B607B60FBE402E4306604D68AD03AD0FD0
:1008B00046D09E08264DB6007519AC462D6E9E0793
:1008C000F60E0F27B740BD4305273F07B84201D1B9
:1008D00000270FE01F4FB84201D101270AE01E4F49
:1008E000B84201D1022705E01C4FB84201D10327CD
:1008F00000E00527B7402F43154D664637662D6843
:100900004E689543F60200D51543114F3D607D6852
:10091000954300E014E04E68B60200D515437D60B3
:100920000B4D80356E684F689643BF0300D5164364
:100930006E602E684F689643FF0300D516432E6005
:100940005B1C0A681546DA4000D05FE7F0BD000086
:10095000001802400004005000080050000C005035
:100960000069084000D001207047002A01D0816151
:10097000704781627047000001488068704700003E
:100980000000002002488168027889188160704761
:100990000000002010B508480024016882151143AA
:1009A0000160032000F00AF8002801D0012401E0D2
:1009B00000F028F8204610BD0020024070B50F4E10
:1009C000002431780546002915D07D20C000FFF7AE
:1009D00091FB01460A480068FFF78CFB00F052FDCE
:1009E000002808D1042D06D200222946401E00F01E
:1009F0002BF8756000E00124204670BD0000002047
:100A00000C00002008B5094801680122114301606B
:100A100000681040009005484038C26B01040A434A
:100A2000C263C06B0840009008BD00004010024047
:100A3000002805DBC106C90E012088400149086075
:100A40007047000000E100E010B501F077FA10BD3A
:100A500010B50F4C216803225202914301432160DB
:100A6000C11FFF39FA390ED10A48062100684843F0
:100A70000949FFF73FFB401C02E0002805D0401E5B
:100A800061694905F9D4002010BD032010BD0000A4
:100A9000007000400C00002040420F00F8B50F46E7
:100AA000060043D04D4D28684007400FB84213D28E
:100AB0002868C008C00038432860FFF75DFF04467F
:100AC00005E0FFF759FF011B4548814261D82868BE
:100AD0004007400FB842F4D13068424C81070DD531
:100AE000400704D5A068072109030843A060A06857
:100AF0000F2109028843B1680843A0603078C0071D
:100B000032D0706801280AD002280BD000280FD0FC
:100B10003449403103280ED0C969890704E02168AF
:100B2000890301E021688901002906DB0120F8BD65
:100B300021684905F8E7096AEFE7A168C908C90013
:100B40000143A160FFF718FF009006E0FFF714FFD4
:100B50000099411A224881421BD8A06838210840D8
:100B60007168C9008842F1D128684007400FB84237
:100B700017D91A480168C908C90039430160FFF74D
:100B8000FBFE054607E0FFF7F7FE411B14488142D4
:100B900001D90320F8BD114800684007400FB84252
:100BA000F1D13078400706D5A068072109038843B2
:100BB000F1680843A06000F031F8A1683C2289097F
:100BC0001140094A515CC906C90EC840074908606E
:100BD00007480068FFF7F2FEF8BD00000020024061
:100BE0008813000000100240702900080C0000204B
:100BF000040000200648074900688968064A49043D
:100C0000490F8900515CC906C90EC84070470000F1
:100C10000C00002000100240B029000810B5204C44
:100C2000A068204A8006400F16D0A0688006410FB9
:100C3000501001290FD0A1688906490F022912D04E
:100C4000A0688006400F042823D0A0688006400FCB
:100C5000032821D0002010BD206801218004400F0E
:100C60008140104612E0E1688B07E1689B0F49065E
:100C7000490F491C032B00D01046FFF73BFAE168EF
:100C80004904490E4843E168490F491CFFF732FA0D
:100C900010BD0120C00310BD7D20000210BD00006A
:100CA000001002400024F400F8B504007ED0207843
:100CB0003827C007E94D002846D0A868E9683840C1
:100CC0008907890F102802D008280BD001E00329DA
:100CD00008D001206268000482420AD129680143D9
:100CE000296015E0286880032ED560680028DDD0D3
:100CF0002AE0052301211B0489049A422A6802D1B3
:100D00000A432A60EAE782432A6028688843286009
:100D1000606800280CD0FFF72FFE064604E0FFF7BE
:100D20002BFE801B642873D828688003F7D50BE05E
:100D3000FFF722FE064604E0FFF71EFE801B642834
:100D4000F1D828688003F7D42078800769D5A8688F
:100D5000E96838408A070721920FC902102802D09B
:100D6000002813D001E0022A10D0E068002846D005
:100D7000286888432169084328602868FF210131D9
:100D800008432860FFF7F8FD06462CE02A68520564
:100D900002D5E268002A89D06A687F231B029A4341
:100DA00063691B021A436A60002800E08DE00ED1DF
:100DB0002868884321690843286028680121800445
:100DC000400F8140A648FFF795F9A6490860A6485C
:100DD0000068FFF7F3FD002877D122E0FFF7CCFD94
:100DE000801B02289FD828684005F7D568687F21B6
:100DF00009028843616909020843686011E02968B3
:100E0000FF20013081432960FFF7B6FD064605E06B
:100E100098E0FFF7B1FD801B022884D828684005C0
:100E2000F7D42078914E00072ED5A8688006400F91
:100E300003280AD0A0690028306A16D0012108438F
:100E40003062FFF799FD07460BE0306A80071BD53B
:100E5000A06900289FD017E0FFF78EFDC01B022875
:100E600070D8306A8007F7D50EE040084000306245
:100E7000FFF782FD074604E0FFF77EFDC01B022856
:100E800060D8306A8007F7D4207840076CD5A8680E
:100E900000278006400F042818D0E86BC00008D453
:100EA000E96B012000070143E963E96B0140012779
:100EB00000916F480168C90519D401688215114372
:100EC0000160FFF759FD00900DE083E0F0698007B5
:100ED0004AD5A06800287DD046E0FFF74DFD009977
:100EE000401A02282ED862480068C005F5D5A168CE
:100EF000012910D004200529F16911D049084900C1
:100F0000F161F1698143F161A068002816D0FFF713
:100F100033FD00900EE0F06901210843F061F3E732
:100F20000143F161F7E7FFF727FD0099411A5148A6
:100F3000814265D8F0698007F5D50EE0FFF71CFD0A
:100F4000009007E05CE0FFF717FD0099411A49485F
:100F5000814255D8F0698007F5D4002F04D0E96BA1
:100F6000012000078143E963E069002873D0A96884
:100F70008906490F02294DD0012636060228286825
:100F800005D0B0432860FFF7F7FC04463AE0B043D1
:100F90002860FFF7F1FC074604E0FFF7EDFCC01BFB
:100FA00002282DD828688001F7D4616A206AA26AD5
:100FB0000843E16A120211430843216B0843E968C0
:100FC0002D4A11400843E860286830432860E868EB
:100FD000012100E03DE009070843E860FFF7CCFC91
:100FE000044604E0FFF7C8FC001B022808D8286864
:100FF0008001F7D52FE0FFF7BFFC001B022801D9C5
:101000000320F8BD28688001F5D4E8681B49084032
:10101000E86020E00128F4D0E868226A8107890F9F
:10102000914216D17021626A0140914211D17F2113
:10103000A26A09020140120291420AD11F21490409
:10104000E26A0140914204D1400F216B400788427F
:1010500001D00120F8BD0020F8BD000000100240C2
:101060000024F4000C000020040000204010024086
:1010700000700040881300008C80C11FFCFFFEEF51
:10108000F8B504000CD0606A002500280AD025615C
:10109000656126464036A562707F002808D00BE0C7
:1010A0000120F8BD6168C81FFD38F2D0E561F0E7A6
:1010B0003577204600F05CF80222727720680168DC
:1010C0004023994301600723E1681B02994201D93B
:1010D000002001E0012000030F273F02B94202D0A7
:1010E000994200D0A562FF2361680533194021278A
:1010F000A368BF023B40194323691340227D194373
:10110000D207D20F11430123A2695B021A40114397
:10111000E26938231A401143226A80231A4011439E
:10112000A26A9B011A40114322681160A16904223E
:10113000090C1140626A10231A401143626B0823A4
:101140001A4011430F23E2681B021A401143012287
:10115000120310400143206841602068C1695210A9
:101160009143C1612566012070770020F8BD000021
:10117000F0B587B0064614216846FEF7D8FF3D4A11
:10118000316800243C480127022591422DD13A497B
:1011900040310B68821413430B60096811400591BC
:1011A000416B39434163406B029438400590E02025
:1011B0000090052003946946019504940007FFF709
:1011C00021FB2F4D2D482860112068601020EC6015
:1011D000A8606C61AC61EC6180202C6228612846BB
:1011E00040E07565AE6207B0F0BD264A9142FAD183
:1011F000C26B09140A43C263C26B0A400592416B79
:1012000029434163416B29400591416B3943416357
:10121000406B0294C007C00F059080200090694683
:101220000497019503941848FFF7ECFA05200294FF
:10123000039469460007009701950494FFF7E2FACA
:101240000E480F4D14385C3528601320686010205C
:10125000EC60A8606C618020AC61286120202C6269
:10126000E8612846FFF76AFA0028BAD0FEF7B8FF0F
:10127000B7E7000000300140001002401C000240AF
:10128000400100200038004000040050FFB5044633
:1012900083B00120254640350090287F00271E4658
:1012A00001280FD001202877FFF766FB0190687FA7
:1012B000616801280DD0CA1FFD3A08D1A168002934
:1012C00005D102E0022007B0F0BD042801D00227BA
:1012D000D4E0049800286FD005980028FBD0002E99
:1012E000F9D0687F042801D00520687700202066A7
:1012F00005992164EE80AE800499A163E687A687F4
:10130000E064206507210120E268090200038A42A7
:101310002268536801D9834300E003435360206887
:101320000268520603D4026840231A430260E06850
:101330008842606848D9002801D0012E3DD1A06BB9
:1013400001882068C160A06B801CA063E08F401EF4
:10135000E08732E020688168890710D5E18F002995
:101360000DD0009901290AD1A16B0988C160A06B39
:10137000801CA063E08F401EE08700200090206862
:101380008168C9070DD0E98800290AD0C068216C9E
:101390000880206C801C2064E888401EE8800120C2
:1013A0000090FFF7E9FA0199401A0C99884204D39A
:1013B000481C02D003275FE05CE0E08F0028C9D121
:1013C000E8880028C6D148E0002801D0012E3ED18F
:1013D000A06B216800780873A06B401CA063E08FAD
:1013E000401EE08733E020688168890710D5E18FCF
:1013F00000290DD0009901290AD1A16B0978017348
:10140000A06B401CA063E08F401EE087002000908E
:1014100020688168C9070DD0E98800290AD0007BBF
:10142000216C0870206C401C2064E888401EE88015
:1014300001200090FFF7A0FA01460198091A0C98C4
:10144000814202D3401C02D0B4E70028B2D0E08F22
:101450000028C8D1E8880028C5D12046019A0C99F7
:1014600000F042FA002802D0012720202066206EDA
:10147000002801D0012701E00120687700202877AB
:10148000384620E7094910B5401E884201D901209D
:1014900010BD074C60610321081F00F04FFD0020C4
:1014A000A06107202061002010BD0000FFFFFF00A9
:1014B00000E000E070B5040005D025468035A8683E
:1014C000002802D006E0012070BD002028712046CF
:1014D00000F026F82420A860206801684908490027
:1014E0000160A06A002802D0204600F027FB2046B9
:1014F00000F018FC0128E7D0206841680922D202D8
:1015000091434160206881682A229143816020686C
:101510000168012211430160204600F075FB70BD97
:1015200010B586B0044614216846FEF700FE114946
:10153000206888421CD11048C26B012149040A432B
:10154000C263C26B0A400592426B01210A434263A7
:10155000406B0491084005900C20009002200190FF
:10156000002002900390052069460007FFF74AF922
:1015700006B010BD0044004000100240FFB5064612
:1015800004468036B06883B00D46202802D0022081
:1015900007B0F0BD002D0CD00598002809D001201F
:1015A000A1680003814206D12069002803D1E80721
:1015B00001D00120ECE7002030612120B060FFF76E
:1015C000DBF90190274640370598B8820598F882E4
:1015D0000120A1680003814202D12069002802D0C5
:1015E0000295002515E00020029012E000228021E3
:1015F000204600F04BFC002818D10298002819D092
:101600002168007888620298401C0290F88A401E87
:10161000F882F88A019B002806980090E6D1002203
:101620004021204600F032FC00280AD02020B06083
:101630000320ADE728882168C005C00D8862AD1C75
:10164000E4E72020B0600020A2E7FEE78068C00742
:10165000C00F704780684007C00F704702680723BB
:101660009B059A430A430260704710B543690424FE
:10167000214007248C40A3438A401343436110BD9B
:101680003EB5002418480094019416490294016064
:101690008460C460090504614160042141610476ED
:1016A000447684760121C161014620310C70446288
:1016B00084620C730463446384630C77C464FEF730
:1016C000A3FE002801D0FEF78BFD0848009001948E
:1016D000694602940448FEF785FD002801D0FEF714
:1016E0007FFD3EBD002401401400002002000004E4
:1016F00008B50C48816B012211438163806B104057
:101700000022009011460920FFF79EF90920FFF7FB
:101710008FF9002211460A20FFF796F90A20FFF7F9
:1017200087F908BD00100240F0B587B01421684663
:10173000FEF7FDFC3248426B02210A434263426BD2
:101740000A400592426B04210A434263426B0A40FD
:101750000592416B012529434163406B294F284085
:1017600005900022A9033846FFF7FFF80122D103B4
:101770003846FFF7FAF80520012210210007FFF78D
:10178000F4F82E030520002231460007FFF7EDF89C
:10179000032080030024009002946946019503947D
:1017A0003846FFF72FF81020009003200390052003
:1017B0000195029469460007FFF724F8124F01943F
:1017C0006946384600950294FFF71CF8E8026A461D
:1017D00031C2052069460007FFF714F8052002947E
:1017E00069460007009601950394FFF70BF808205F
:1017F0006A4631C269463846FFF704F807B0F0BDC3
:1018000000100240000800500004005010B51148BC
:101810000F490160FF2105314160002107228160ED
:1018200012020161C26001224161520282610162C1
:1018300010224162C26181620722C26201630821F3
:101840004163FFF71DFC002801D0FEF7C9FC10BD65
:10185000003001407800002010B5124810490160A6
:10186000FF21053141600121C9038160072109027F
:10187000C1600221016101214161490281611021A0
:10188000C161002101624162816207220163C2627B
:101890004163FFF7F5FB002801D0FEF7A1FC10BD66
:1018A00000380040DC00002010B50C480A490160F7
:1018B0000B49416000218160C16001618161C161AA
:1018C00001620C22416242618162FFF7F3FD002850
:1018D00001D0FEF785FC10BD00440040F801002057
:1018E00040420F00FEE77047F8B50F460B4615461D
:1018F0000092032104460022C90200F01BF82026B2
:10190000002812D13B46002280212046009500F09D
:101910007DF8002809D103213B46002249022046D8
:10192000009500F007F8002803D0206E30432066B1
:101930000320F8BDFFB585B00E4604460020694679
:101940000E9D17460871FFF717F8411B0898451AB6
:10195000FFF712F80390206823210C3002902A48E8
:1019600000684843000D684346E003204002864279
:1019700006D1002F04D102980178684601710079E0
:101980000898401C39D0FEF7F7FF0399401AA84287
:1019900005D2002D03D0009800282BD02BE0206822
:1019A0004168E022914341606068C11FFD390CD15C
:1019B0000121A068C903884202D04911884204D19C
:1019C000206801684022914301600120A16A400320
:1019D000814207D121680A6882430A6021680A6847
:1019E00002430A6001204034607700202077032002
:1019F00009B0F0BD0025401E00902068806830408E
:101A0000B842B2D10020F3E70C000020FFB581B04E
:101A10001E4604460A9DFEF7AFFF401B351AFEF72F
:101A2000ABFF0746264800684001000D684339E0D7
:101A3000701C38D0FEF7A0FFC01BA84205D2002DB5
:101A400003D0009800282BD02BE020684168E022CA
:101A5000914341606068C11FFD390CD10121A0682C
:101A6000C903884202D04911884204D12068016824
:101A70004022914301600120A16A4003814207D1C5
:101A800021680A6882430A6021680A6802430A6082
:101A900001204034607700202077032005B0F0BD9E
:101AA0000025401E0090206881680298884305D078
:101AB000002103988142BBD10020EFE70121F8E724
:101AC0000C000020704710B5FEF75CFF10BD30B56C
:101AD00091B034216846FEF72AFB002501200D95C0
:101AE0000E950F9540021095FEF7B2FF0224E0011B
:101AF00003900094402005900495302009903520F3
:101B00000A9020040B900320079440070C9008943F
:101B10006846FFF7C9F8002801D072B6FEE7072033
:101B20000DA931C102210DA81095FEF7B7FF0028BD
:101B300001D072B6FEE711B030BD704710B5018D0F
:101B4000090707D501684A680123DB039A43836BC1
:101B50001A434A60018DC90707D001684A6801230A
:101B60005B049A43C36A1A434A60018D890707D50B
:101B700001684A6801231B049A43036B1A434A60B5
:101B8000018D490707D501684A6801239B049A43E0
:101B9000436B1A434A60018DC90607D502689168F4
:101BA00001231B039943C36B19439160018D89067F
:101BB00007D501688A6801235B039A43036C1A43C3
:101BC0008A60018D490612D503685A68012109050A
:101BD000446C8A4322435A60426C8A4207D10268AD
:101BE000516803235B059943836C19435160018D50
:101BF000090607D501684A680123DB04C06C9A43D3
:101C000002434A6010BD0000FEB50546002680353F
:101C100004462E61FEF7B0FE019020680068202780
:101C20000007002817DA25480090002239042046D2
:101C3000019B00F02BF900280DD0EFF3108001215B
:101C400081F3108821680A6880239A430A6080F330
:101C50001088AF6028E020680068400727D5174843
:101C600000900121002289052046019B00F00EF919
:101C700000281CD0EFF31080012181F31088216827
:101C80000A68FF2321339A430A6080F31088EFF338
:101C90001080012181F3108821688A68520852005F
:101CA0008A6080F31088EF602E710320FEBDAF6064
:101CB000EF60E66626672E710020FEBDFFFFFF0184
:101CC00010B5EFF31081012282F3108802681368C7
:101CD000FF242134A343136081F31088EFF31081B4
:101CE000012282F31088026893680D4C23409360B0
:101CF00081F31088C16E01290BD1EFF3108101220D
:101D000082F31088026813681024A343136081F3E0
:101D1000108820228C210A500021C166416710BD25
:101D2000FEFFFFEFF8B5044680682169E2690843C9
:101D30006169002511432268084311684B4B194023
:101D40000143116020684168032212039143E26855
:101D500011434160A169206A084321688A68444BA5
:101D60001A4002438A602068C16A626A090909014F
:101D70001143C1623F492068884211D13E48406901
:101D80008007800F0FD0012806D0022802D0032838
:101D90000BD103E0022109E0042107E0082105E05E
:101DA0003649884201D1002100E010210120E36979
:101DB000C003334A334E344F834227D1002906D023
:101DC000022907D0042907D008293FD108E0FEF7EF
:101DD00011FF03E0104603E0FEF720FF00283AD091
:101DE000616A4900715AFEF785F9616840004A0846
:101DF0008018FEF77FF901461039B94226D82249EA
:101E0000491C01400007400F084322E0002906D08A
:101E1000022907D0042907D0082917D108E0FEF7C6
:101E2000E9FE03E0104603E0FEF7F8FE002812D0BA
:101E3000616A4900715AFEF75DF961684A088018C5
:101E4000FEF758F901461039B94201D9012502E0DF
:101E500080B22168C860204601214030418501855B
:101E600000206067A0672846F8BD0000F369FFCF37
:101E7000FFF4FF11003801404010024000440040D0
:101E80000024F40058290008EFFF0000FFB581B0DE
:101E900005460E46044680350A9F32E0781C30D055
:101EA000FEF76AFD0499401AB84218D8002F16D0E0
:101EB00020680168490724D5802E22D0402E20D0EA
:101EC000C169C94309070CD4082606622046FFF7FA
:101ED000F7FE2E6100202871012005B0F0BD03201F
:101EE000FBE7C069C04300050BD401202168C00294
:101EF00008622046FFF7E4FE2020286100202871B8
:101F0000EDE72068C1693046884305D00021039879
:101F10008142C3D00020E0E70121F8E70FB410B5FB
:101F200003A9044B044A029800F03AF810BC08BC1C
:101F300004B018476D240008100000208307FF221A
:101F4000DB0E9A408907090E9940002808DB8308B8
:101F500009489B001B181868904308431860704795
:101F60000007000F0838830804489B001B18D86935
:101F700090430843D861704700E400E000ED00E0C2
:101F800002E008C8121F08C1002AFAD17047704742
:101F9000002001E001C1121F002AFBD170470000A0
:101FA000FFB58DB00446002506E025280AD0109A1A
:101FB0000F999047641C6D1C20780028F5D12846A5
:101FC00011B0F0BD00270121484A009700E0074307
:101FD000641C23780846203B98401042F7D12078B3
:101FE0002E2817D1042007436078641C2A280CD1BE
:101FF0000E98641C02C800910E900BE000990A2212
:10200000514330394018641C009020780146303923
:102010000929F3D920780028D1D0642808D069286C
:1020200006D075281ED0109A0F9990476D1C5BE062
:102030000A200E99019001C90E91002802DA40424F
:102040002D2102E0390504D52B216A4611720121A8
:1020500003E0F90704D02021F7E70BAE0B910DE068
:102060000021FAE70A200E99019001C90E91F7E7C5
:102070000199FEF73FF83031761E31700028F7D114
:1020800003A8801B20300190780701D5009801E05B
:10209000012000900199884201DD401A00E00020F3
:1020A0000027009006E002A8109AC05D0F999047A3
:1020B0006D1C7F1C0B988742F5DB04E0109A3020E2
:1020C0000F9990476D1C0099481E00900029F5DC7F
:1020D00005E03078109A761C0F9990476D1C019995
:1020E000481E01900029F4DC641C65E70928010002
:1020F0000020401C80B20828FBD3704710B500F0C8
:10210000C1F801210520002209030007FEF72DFC7C
:102110000A20FEF765FB10BDF8B50127FF02052573
:102120002D0739462846FEF71BFC0028F9D100246C
:10213000012726463F03012239462846FEF715FCB3
:10214000FFF7D6FF002239462846FEF70EFC012194
:10215000C9022846FEF704FC1721891B8840761C1B
:102160000443F6B2182EE6D300260122394628464B
:10217000FEF7FBFBFFF7BCFF002239462846FEF7BF
:10218000F4FB761CF6B2032EEFD32046F8BDF8B56B
:10219000FFF7C2FF00F089F801240026240305257B
:1021A0002D07012221462846FEF7DFFBFFF7A0FF9F
:1021B000002221462846FEF7D8FB761CF6B2022EF6
:1021C000EFD300260627012221462846FEF7CDFB45
:1021D000FFF78EFFB91B5620C840C00701D001226F
:1021E00000E000220121C9022846FEF7BEFB0022C2
:1021F00021462846FEF7B9FB761CF6B2072EE2D33D
:102200000026012221462846FEF7AFFBFFF770FFAC
:10221000002221462846FEF7A8FB761C3606360E1D
:10222000EFD000F02FF800273E4601222146284635
:10223000FEF79BFBFFF75CFF0121C9022846FEF772
:102240008FFB0721891B88403843C7B200222146F3
:102250002846FEF78AFB761CF6B2082EE5D3002648
:10226000012221462846FEF780FBFFF741FF0022AE
:1022700021462846FEF779FB761C3606360EEFD04F
:102280003846F8BD00B585B014216846FDF74FFF0C
:102290000120C002009000200190029005206946B4
:1022A0000007FEF7AFFA05B000BD30B585B01421C8
:1022B0006846FDF73CFF01240525E4022D070022B6
:1022C00021462846FEF751FB012001900020029094
:1022D00002200390009469462846FEF793FA05B061
:1022E00030BDF8B50D460646FFF751FF0446002EF7
:1022F00006D0012E13D0022E22D0032E3BD130E087
:10230000FC200440002D36D0012D34D0022D02D007
:10231000032D30D101E002202CE003202AE0F3203D
:102320000440002D27D0012D04D0022D04D0032D10
:1023300021D103E004201DE008201BE00C2019E05F
:10234000CF200440002D16D0012D04D0022D04D042
:10235000032D10D103E010200CE020200AE03020F3
:1023600008E0002D02D0012D03D004E0BF2004407E
:1023700001E040200443FFF7CFFEFFF796FF012561
:1023800000272D0305263607012229463046FEF791
:10239000ECFAFFF7ADFE002229463046FEF7E5FADB
:1023A0007F1CFFB2022FEFD30027012229463046BF
:1023B000FEF7DBFA0620C11B6520C840C00701D02C
:1023C000012200E000220121C9023046FEF7CDFAC9
:1023D000FFF78EFE002229463046FEF7C6FA7F1C24
:1023E000FFB2072FE1D30027012229463046FEF72E
:1023F000BCFAFFF77DFE002229463046FEF7B5FA0B
:102400007F1C3F063F0EEFD00027012229463046B1
:10241000FEF7ABFA0720C01B2146C140C80701D018
:10242000012200E000220121C9023046FEF79DFA98
:10243000FFF75EFE002229463046FEF796FA7F1C23
:10244000FFB2082FE1D30024012229463046FEF7CF
:102450008CFA002229463046FEF787FA641C2406CF
:10246000240EF1D0FFF70EFFF8BD000013B5044BAA
:10247000012269460348FFF781F800981CBD00005F
:10248000FFFF0000F8010020FEF784FAFFF71FFBB2
:10249000FFF74AF9FFF72CF9FFF7B8F9FFF7F0F863
:1024A000FFF7DAF9FFF700FA00F0F6F900F0ECF9BF
:1024B000FCE7000070B586B01BA0FFF72FFD1EA142
:1024C00003C9019000200291039001AE03AD049076
:1024D000052201A9102000F09FF9052203A9102070
:1024E00000F052F90024285D00902346325D194621
:1024F00013A0FFF713FD305D295D884203D1641CF2
:10250000E4B2052CEFD3052C09D016A0FFF706FD89
:10251000C820FEF765F919A0FFF700FDD8E71DA058
:10252000FFF7FCFC06B070BD7369323472313A209B
:10253000636865636B0D0A00A5A5A5A5A50000004D
:102540006275665B25645D203D2025642C207265E4
:1025500061645F6275665B25645D203D2025640DC6
:102560000A0000007369323472313A20636865638F
:102570006B206572726F72210D0A0000736932342C
:1025800072313A20636865636B20616761696E210F
:102590000D0A00007369323472313A206368656352
:1025A0006B20706173730D0A0000000070B570211C
:1025B0000840044600F066F8052506462D0700226F
:1025C00010212846FEF7D1F9272000F013F9204604
:1025D000304300F00FF9012210212846FEF7C5F91B
:1025E00000F050F870BD00001CB50520012210213C
:1025F0000007FEF7BAF920A103C90122019100905A
:10260000D1031F48FEF7B1F97020FFF7CFFF01217A
:102610001C2000F020F907211D2000F01CF91C20CF
:1026200000F0D0F81D2000F0CDF80A21002000F0C5
:1026300012F90121084600F00EF90121022000F0F4
:102640000AF90321084600F006F9FF21042000F0F2
:1026500002F93C21052000F0FEF82621062000F0BA
:10266000FAF80521684600F04FF805226946002077
:1026700000F03EF81CBD00003443101001000000C3
:102680000008005070B505252D07002210212846AE
:10269000FEF76BF9072000F0ADF804460122102187
:1026A0002846FEF762F9204670BD10B504460020AA
:1026B00000F088F80146002C02D0012C03D004E081
:1026C0004108490001E001200143002000F0C3F867
:1026D00010BD10B50446072800D90724062000F0D5
:1026E00071F8C108C9002143062000F0B4F810BDFC
:1026F00010B5052A00D90522052800D905200A3081
:10270000C0B200F089F810BD10B5052900D9052127
:102710000A460146102000F07FF810BD70B50C4647
:10272000054620290CD8002C0AD0052636070022A1
:1027300010213046FEF719F9B02000F05BF805E0F3
:10274000002070BD287800F055F86D1C2046641EEE
:10275000E4B20028F6D1012210213046FEF705F937
:10276000084C01212046FEF7FBF80028F9D107208C
:1027700000F028F804460146072000F06CF82046D7
:1027800070BD000000040050F8B5052715460E4640
:1027900004463F07002210213846FEF7E6F820469F
:1027A00000F028F8002405E0FF2000F023F8305561
:1027B000641CE4B2AC42F7D3012210213846FEF784
:1027C000D4F8F8BD70B5052504462D070022102168
:1027D0002846FEF7CAF8204600F00CF8FF2000F06B
:1027E00009F80446012210212846FEF7BEF82046CB
:1027F00070BD000001B582B0002168460171481E1D
:102800000090012301AA02A90248FEF73FFD684695
:1028100000790EBD78000020F8B5052715460E4654
:1028200004463F07002210213846FEF79EF8204656
:1028300020210843FFF7DEFF002404E0305DFFF7AE
:10284000D9FF641CE4B2AC42F8D30122102138460F
:10285000FEF78BF8F8BD70B505250E4604462D072A
:10286000002210212846FEF780F820462021084348
:10287000FFF7C0FF3046FFF7BDFF012210212846B9
:10288000FEF773F870BD000010B520210148FFF776
:1028900045FF10BD8C02002010B517A0FFF73EFBCE
:1028A0006420FDF79DFF18A0FFF738FBFFF726FC1B
:1028B00002210846FFF715FD00210846FFF711FD2C
:1028C00003210120FFF70DFD14A0FFF727FB0A20CD
:1028D000FDF786FF17A0FFF721FBFFF7EBFDFFF7E2
:1028E00083FE0520FFF7F5FE0020FFF7DEFE15A0B2
:1028F000FFF714FB10BD000053797374656D20421F
:102900006567696E0D0A0000435331323337204149
:10291000444320496E69740D0A000000435331326C
:1029200033372041444320496E697420446F6E65FB
:102930000D0A000053493234523120496E69740D3A
:102940000A00000053493234523120496E69742024
:10295000446F6E650D0A00000100020004000600CD
:1029600008000A000C001000200040008000000158
:102970000000000000000000000000000000000057
:102980000000000000000000000000000000000047
:10299000010000000200000003000000040000002D
:1029A0000600000007000000080000000900000009
:1029B0000000000000000000000000000000000017
:1029C00001000000020000000300000004000000FD
:1029D000F02900080000002014000000801F0008FB
:1029E000042A0008140000209C060000901F000824
:1029F0000100000004000000000000000024F400BA
:042A000000000000D2
:04000005080000C12E
:00000001FF
